{
  "contractName": "Transaction",
  "abi": [
    {
      "inputs": [
        {
          "internalType": "string",
          "name": "",
          "type": "string"
        },
        {
          "internalType": "uint256",
          "name": "",
          "type": "uint256"
        }
      ],
      "name": "transactions",
      "outputs": [
        {
          "internalType": "string",
          "name": "source_ewallet",
          "type": "string"
        },
        {
          "internalType": "string",
          "name": "destination_ewallet",
          "type": "string"
        },
        {
          "internalType": "uint256",
          "name": "amount",
          "type": "uint256"
        },
        {
          "internalType": "string",
          "name": "currency",
          "type": "string"
        },
        {
          "internalType": "uint256",
          "name": "timestamp",
          "type": "uint256"
        }
      ],
      "stateMutability": "view",
      "type": "function",
      "constant": true
    },
    {
      "inputs": [
        {
          "internalType": "string",
          "name": "_source_ewallet",
          "type": "string"
        },
        {
          "internalType": "string",
          "name": "_destination_ewallet",
          "type": "string"
        },
        {
          "internalType": "uint256",
          "name": "_amount",
          "type": "uint256"
        },
        {
          "internalType": "string",
          "name": "_currency",
          "type": "string"
        },
        {
          "internalType": "uint256",
          "name": "_timestamp",
          "type": "uint256"
        }
      ],
      "name": "recordTransaction",
      "outputs": [
        {
          "components": [
            {
              "internalType": "string",
              "name": "source_ewallet",
              "type": "string"
            },
            {
              "internalType": "string",
              "name": "destination_ewallet",
              "type": "string"
            },
            {
              "internalType": "uint256",
              "name": "amount",
              "type": "uint256"
            },
            {
              "internalType": "string",
              "name": "currency",
              "type": "string"
            },
            {
              "internalType": "uint256",
              "name": "timestamp",
              "type": "uint256"
            }
          ],
          "internalType": "struct Transaction.transaction[]",
          "name": "",
          "type": "tuple[]"
        }
      ],
      "stateMutability": "nonpayable",
      "type": "function"
    },
    {
      "inputs": [
        {
          "internalType": "string",
          "name": "source_ewallet",
          "type": "string"
        }
      ],
      "name": "getTransactionFrom",
      "outputs": [
        {
          "components": [
            {
              "internalType": "string",
              "name": "source_ewallet",
              "type": "string"
            },
            {
              "internalType": "string",
              "name": "destination_ewallet",
              "type": "string"
            },
            {
              "internalType": "uint256",
              "name": "amount",
              "type": "uint256"
            },
            {
              "internalType": "string",
              "name": "currency",
              "type": "string"
            },
            {
              "internalType": "uint256",
              "name": "timestamp",
              "type": "uint256"
            }
          ],
          "internalType": "struct Transaction.transaction[]",
          "name": "",
          "type": "tuple[]"
        }
      ],
      "stateMutability": "view",
      "type": "function",
      "constant": true
    }
  ],
  "bytecode": "0x608060405234801561001057600080fd5b50610f37806100206000396000f3fe608060405234801561001057600080fd5b50600436106100415760003560e01c80634935efe7146100465780635ad76c3f1461007a57806381c8f4e7146100aa575b600080fd5b610060600480360381019061005b9190610a68565b6100da565b604051610071959493929190610cc3565b60405180910390f35b610094600480360381019061008f9190610968565b6102db565b6040516100a19190610ca1565b60405180910390f35b6100c460048036038101906100bf91906109a9565b610522565b6040516100d19190610ca1565b60405180910390f35b600082805160208101820180518482526020830160208501208183528095505050505050818154811061010c57600080fd5b90600052602060002090600502016000915091505080600001805461013090610e49565b80601f016020809104026020016040519081016040528092919081815260200182805461015c90610e49565b80156101a95780601f1061017e576101008083540402835291602001916101a9565b820191906000526020600020905b81548152906001019060200180831161018c57829003601f168201915b5050505050908060010180546101be90610e49565b80601f01602080910402602001604051908101604052809291908181526020018280546101ea90610e49565b80156102375780601f1061020c57610100808354040283529160200191610237565b820191906000526020600020905b81548152906001019060200180831161021a57829003601f168201915b50505050509080600201549080600301805461025290610e49565b80601f016020809104026020016040519081016040528092919081815260200182805461027e90610e49565b80156102cb5780601f106102a0576101008083540402835291602001916102cb565b820191906000526020600020905b8154815290600101906020018083116102ae57829003601f168201915b5050505050908060040154905085565b60606000826040516102ed9190610c8a565b9081526020016040518091039020805480602002602001604051908101604052809291908181526020016000905b8282101561051757838290600052602060002090600502016040518060a001604052908160008201805461034e90610e49565b80601f016020809104026020016040519081016040528092919081815260200182805461037a90610e49565b80156103c75780601f1061039c576101008083540402835291602001916103c7565b820191906000526020600020905b8154815290600101906020018083116103aa57829003601f168201915b505050505081526020016001820180546103e090610e49565b80601f016020809104026020016040519081016040528092919081815260200182805461040c90610e49565b80156104595780601f1061042e57610100808354040283529160200191610459565b820191906000526020600020905b81548152906001019060200180831161043c57829003601f168201915b505050505081526020016002820154815260200160038201805461047c90610e49565b80601f01602080910402602001604051908101604052809291908181526020018280546104a890610e49565b80156104f55780601f106104ca576101008083540402835291602001916104f5565b820191906000526020600020905b8154815290600101906020018083116104d857829003601f168201915b505050505081526020016004820154815250508152602001906001019061031b565b505050509050919050565b60606000866040516105349190610c8a565b90815260200160405180910390206040518060a0016040528088815260200187815260200186815260200185815260200184815250908060018154018082558091505060019003906000526020600020906005020160009091909190915060008201518160000190805190602001906105ae929190610848565b5060208201518160010190805190602001906105cb929190610848565b506040820151816002015560608201518160030190805190602001906105f2929190610848565b5060808201518160040155505060008660405161060f9190610c8a565b9081526020016040518091039020805480602002602001604051908101604052809291908181526020016000905b8282101561083957838290600052602060002090600502016040518060a001604052908160008201805461067090610e49565b80601f016020809104026020016040519081016040528092919081815260200182805461069c90610e49565b80156106e95780601f106106be576101008083540402835291602001916106e9565b820191906000526020600020905b8154815290600101906020018083116106cc57829003601f168201915b5050505050815260200160018201805461070290610e49565b80601f016020809104026020016040519081016040528092919081815260200182805461072e90610e49565b801561077b5780601f106107505761010080835404028352916020019161077b565b820191906000526020600020905b81548152906001019060200180831161075e57829003601f168201915b505050505081526020016002820154815260200160038201805461079e90610e49565b80601f01602080910402602001604051908101604052809291908181526020018280546107ca90610e49565b80156108175780601f106107ec57610100808354040283529160200191610817565b820191906000526020600020905b8154815290600101906020018083116107fa57829003601f168201915b505050505081526020016004820154815250508152602001906001019061063d565b50505050905095945050505050565b82805461085490610e49565b90600052602060002090601f01602090048101928261087657600085556108bd565b82601f1061088f57805160ff19168380011785556108bd565b828001600101855582156108bd579182015b828111156108bc5782518255916020019190600101906108a1565b5b5090506108ca91906108ce565b5090565b5b808211156108e75760008160009055506001016108cf565b5090565b60006108fe6108f984610d5c565b610d2b565b90508281526020810184848401111561091657600080fd5b610921848285610e07565b509392505050565b600082601f83011261093a57600080fd5b813561094a8482602086016108eb565b91505092915050565b60008135905061096281610eea565b92915050565b60006020828403121561097a57600080fd5b600082013567ffffffffffffffff81111561099457600080fd5b6109a084828501610929565b91505092915050565b600080600080600060a086880312156109c157600080fd5b600086013567ffffffffffffffff8111156109db57600080fd5b6109e788828901610929565b955050602086013567ffffffffffffffff811115610a0457600080fd5b610a1088828901610929565b9450506040610a2188828901610953565b935050606086013567ffffffffffffffff811115610a3e57600080fd5b610a4a88828901610929565b9250506080610a5b88828901610953565b9150509295509295909350565b60008060408385031215610a7b57600080fd5b600083013567ffffffffffffffff811115610a9557600080fd5b610aa185828601610929565b9250506020610ab285828601610953565b9150509250929050565b6000610ac88383610be8565b905092915050565b6000610adb82610d9c565b610ae58185610dbf565b935083602082028501610af785610d8c565b8060005b85811015610b335784840389528151610b148582610abc565b9450610b1f83610db2565b925060208a01995050600181019050610afb565b50829750879550505050505092915050565b6000610b5082610da7565b610b5a8185610dd0565b9350610b6a818560208601610e16565b610b7381610ed9565b840191505092915050565b6000610b8982610da7565b610b938185610de1565b9350610ba3818560208601610e16565b610bac81610ed9565b840191505092915050565b6000610bc282610da7565b610bcc8185610df2565b9350610bdc818560208601610e16565b80840191505092915050565b600060a0830160008301518482036000860152610c058282610b45565b91505060208301518482036020860152610c1f8282610b45565b9150506040830151610c346040860182610c6c565b5060608301518482036060860152610c4c8282610b45565b9150506080830151610c616080860182610c6c565b508091505092915050565b610c7581610dfd565b82525050565b610c8481610dfd565b82525050565b6000610c968284610bb7565b915081905092915050565b60006020820190508181036000830152610cbb8184610ad0565b905092915050565b600060a0820190508181036000830152610cdd8188610b7e565b90508181036020830152610cf18187610b7e565b9050610d006040830186610c7b565b8181036060830152610d128185610b7e565b9050610d216080830184610c7b565b9695505050505050565b6000604051905081810181811067ffffffffffffffff82111715610d5257610d51610eaa565b5b8060405250919050565b600067ffffffffffffffff821115610d7757610d76610eaa565b5b601f19601f8301169050602081019050919050565b6000819050602082019050919050565b600081519050919050565b600081519050919050565b6000602082019050919050565b600082825260208201905092915050565b600082825260208201905092915050565b600082825260208201905092915050565b600081905092915050565b6000819050919050565b82818337600083830152505050565b60005b83811015610e34578082015181840152602081019050610e19565b83811115610e43576000848401525b50505050565b60006002820490506001821680610e6157607f821691505b60208210811415610e7557610e74610e7b565b5b50919050565b7f4e487b7100000000000000000000000000000000000000000000000000000000600052602260045260246000fd5b7f4e487b7100000000000000000000000000000000000000000000000000000000600052604160045260246000fd5b6000601f19601f8301169050919050565b610ef381610dfd565b8114610efe57600080fd5b5056fea2646970667358221220e49abb487824dc48e3732c29515718623ee98d807be2a630695c896274eab36564736f6c63430008000033",
  "immutableReferences": {},
  "source": "// SPDX-License-Identifier: MIT\npragma solidity 0.8.0;\n\ncontract Transaction {\n    \n    struct transaction {\n        string source_ewallet;\n        string destination_ewallet;\n        uint amount;\n        string currency;\n        uint timestamp;\n    }\n\n    mapping(string => transaction[]) public transactions;\n\n    function recordTransaction(string memory _source_ewallet, string memory _destination_ewallet, uint _amount, string memory _currency, uint _timestamp) public returns(transaction[] memory)\n    {\n        transactions[_source_ewallet].push(transaction({\n            source_ewallet: _source_ewallet, \n            destination_ewallet: _destination_ewallet, \n            amount: _amount, \n            currency: _currency, \n            timestamp: _timestamp\n        }));\n\n        return transactions[_source_ewallet];\n    }\n\n    function getTransactionFrom(string memory source_ewallet) view public returns(transaction[] memory)\n    {\n        return transactions[source_ewallet];\n    }\n}",
  "sourcePath": "/Users/tridibmitra/Desktop/rapydfund/src/contracts/Transaction.sol",
  "compiler": {
    "name": "solc",
    "version": "0.8.0+commit.c7dfd78e.Emscripten.clang"
  },
  "schemaVersion": "3.4.1",
  "updatedAt": "2021-07-08T07:14:39.978Z",
  "networkType": "ethereum",
  "devdoc": {
    "kind": "dev",
    "methods": {},
    "version": 1
  },
  "userdoc": {
    "kind": "user",
    "methods": {},
    "version": 1
  }
}